{
    "contractName": "NftMarketplace",
    "abi": [
        {
            "inputs": [
                {
                    "internalType": "address",
                    "name": "nftAddress",
                    "type": "address"
                },
                {
                    "internalType": "uint256",
                    "name": "tokenId",
                    "type": "uint256"
                }
            ],
            "name": "NftMarketplace__AlreadyListedOnMarketplace",
            "type": "error"
        },
        {
            "inputs": [],
            "name": "NftMarketplace__NotOwner",
            "type": "error"
        },
        {
            "inputs": [],
            "name": "NftMarketplace__NotYetApproved",
            "type": "error"
        },
        {
            "inputs": [],
            "name": "NftMarketplace__PriceCantBeZero",
            "type": "error"
        },
        {
            "inputs": [
                {
                    "internalType": "address",
                    "name": "nftAddress",
                    "type": "address"
                },
                {
                    "internalType": "uint256",
                    "name": "tokenId",
                    "type": "uint256"
                },
                {
                    "internalType": "uint256",
                    "name": "price",
                    "type": "uint256"
                }
            ],
            "name": "listItem",
            "outputs": [],
            "stateMutability": "nonpayable",
            "type": "function"
        }
    ],
    "bytecode": "608060405234801561001057600080fd5b50610321806100206000396000f3fe608060405234801561001057600080fd5b506004361061002b5760003560e01c806389bfd38f14610030575b600080fd5b61004361003e366004610292565b610045565b005b6040516331a9108f60e11b81526004810183905283908390339083906000906001600160a01b03831690636352211e90602401602060405180830381865afa158015610095573d6000803e3d6000fd5b505050506040513d601f19601f820116820180604052508101906100b991906102c7565b9050806001600160a01b0316836001600160a01b0316146100ed576040516304a4a9db60e51b815260040160405180910390fd5b6001600160a01b038089166000908152602081815260408083208b845282529182902082518084019093528054808452600190910154909316908201528991899133911561016457604051637bc1b7f360e01b81526001600160a01b03851660048201526024810184905260440160405180910390fd5b60008a11610185576040516333e6843560e21b815260040160405180910390fd5b60405163020604bf60e21b8152600481018c90528c9030906001600160a01b0383169063081812fc90602401602060405180830381865afa1580156101ce573d6000803e3d6000fd5b505050506040513d601f19601f820116820180604052508101906101f291906102c7565b6001600160a01b03161461021957604051632d9eba8760e21b815260040160405180910390fd5b5050604080518082018252998a52336020808c019182526001600160a01b039d8e1660009081528082528381209d81529c90529a209851895550509651600190960180546001600160a01b0319169690981695909517909655505050505050565b6001600160a01b038116811461028f57600080fd5b50565b6000806000606084860312156102a757600080fd5b83356102b28161027a565b95602085013595506040909401359392505050565b6000602082840312156102d957600080fd5b81516102e48161027a565b939250505056fea2646970667358221220e580101cc9ad74df8bfdeb9adb486fc423bd3366d9511cd73d842b4029a2b31b64736f6c634300080f0033",
    "sourcePath": "/home/kefaisaboke/github/nft/contracts/nftmarketplace.sol",
    "compiler": {
        "name": "solc",
        "version": "0.8.15+commit.e14f2714"
    },
    "functionHashes": {
        "listItem(address,uint256,uint256)": "89bfd38f"
    },
    "gasEstimates": {
        "creation": {
            "codeDepositCost": "160200",
            "executionCost": "208",
            "totalCost": "160408"
        },
        "external": {
            "listItem(address,uint256,uint256)": "infinite"
        }
    }
}